S024000041546D656761333238505F45787465726E616C496E746572727570742E7372656375
S11300000C9434000C947A000C9451000C948900E4
S11300100C9451000C9451000C9451000C94510018
S11300200C9451000C9451000C9451000C94510008
S11300300C9451000C9451000C9451000C945100F8
S11300400C9451000C9451000C9451000C945100E8
S11300500C9451000C9451000C9451000C945100D8
S11300600C9451000C94510011241FBECFEFD8E022
S1130070DEBFCDBF11E0A0E0B1E0E8E6F1E002C0F0
S113008005900D92A230B107D9F721E0A2E0B1E0CA
S113009001C01D92A330B207E1F70E946D000C94D9
S11300A0B2000C94000085B78F7E85BF52985A9A8F
S11300B022982A9A2198299A259A3C9A3D9A2D9811
S11300C044984598089581E0809369008DBB80939E
S11300D0680086E080936B0008950E9453000E949C
S11300E063007894809102018B30E0F32D9A109292
S11300F00201F8CF1F920F920FB60F9211244A9962
S113010002C02D9A01C02D980F900FBE0F901F9022
S113011018951F920F920FB60F9211242F938F935D
S11301209F9383B1827093B19470209100018217E0
S113013029F0811102C0459A01C04598911102C06D
S1130140449A06C04498909102019F5F90930201E3
S1130150809300019F918F912F910F900FBE0F906C
S10B01601F901895F894FFCFDD
S105016802008F
S9030000FC
