S01A000041746D656761333238505F5265616450696E2E73726563CC
S11300000C9434000C943E000C943E000C943E007E
S11300100C943E000C943E000C943E000C943E0064
S11300200C943E000C943E000C943E000C943E0054
S11300300C943E000C943E000C943E000C943E0044
S11300400C943E000C943E000C943E000C943E0034
S11300500C943E000C943E000C943E000C943E0024
S11300600C943E000C943E0011241FBECFEFD8E048
S1130070DEBFCDBF0E9440000C9451000C940000E0
S113008085B78F7E85BF52985A9A259A3D9A2D98A6
S113009045984A9B03C02D9A4598FBCF2D98459AC5
S10900A0F8CFF894FFCF35
S9030000FC
