S01D000041546D656761333238505F48656C6C6F576F726C642E7372656390
S11300000C9434000C943E000C943E000C943E007E
S11300100C943E000C943E000C943E000C943E0064
S11300200C943E000C943E000C943E000C943E0054
S11300300C943E000C943E000C943E000C943E0044
S11300400C943E000C943E000C943E000C943E0034
S11300500C943E000C943E000C943E000C943E0024
S11300600C943E000C943E0011241FBECFEFD8E048
S1130070DEBFCDBF0E9440000C9452000C940000DF
S113008085B78F7E85BF259A2D9820E28FEF9FEF4D
S1130090AFE0B0E00197A109B109E1F785B182278A
S10B00A085B9F4CFF894FFCFF9
S9030000FC
