S024000041546D656761333238505F54696D6572305F4E6F746D616C4D6F64652E7372656305
S11300000C9434000C94CF000C9451000C94E00038
S11300100C9451000C9451000C9451000C94510018
S11300200C9451000C9451000C9451000C94510008
S11300300C9451000C9451000C94AD010C94C50126
S11300400C9493010C9451000C9451000C945100A5
S11300500C9451000C9451000C9451000C945100D8
S11300600C9451000C94510011241FBECFEFD8E022
S1130070DEBFCDBF11E0A0E0B1E0E6EEF3E002C0E8
S113008005900D92A230B107D9F721E0A2E0B1E0CA
S113009001C01D92A830B207E1F70E9453000C94EE
S11300A0F1010C940000CF93DF931F92CDB7DEB71C
S11300B019820E94AB000E94BB0060E081E00E94B4
S11300C0660160E082E00E94660161E083E00E94D4
S11300D04B0183E00E94420181E00E94880181E09B
S11300E00E94840140E063E080E00E940B01789468
S11300F0E12CF12CD12C01C078010E948E018C01DD
S11301000E94C60089830E94CC00282FE016F106C5
S113011099F3698170E06F5F7F4FC8010E94DD0130
S1130120892B09F42D9AC8019370892B09F4459AF7
S1130130011101C0449AC8018F739927892BE1F6F4
S11301402223D1F284E0D80E0E94C9006D2D82E0F2
S11301500E947101D1CF85B78F7E85BF52985A9A7C
S113016022982A9A2198299A259A3C9A3D9A2D9860
S113017044984598089582E08093690081E08DBB9E
S11301808093680086E080936B000895809103015A
S113019008951092020108958091020108951F921A
S11301A00F920FB60F9211248F93809102018F5FEB
S11301B0809302018F910F900FBE0F901F9018959E
S11301C01F920F920FB60F9211242F938F939F9328
S11301D093B1927083B1847020910101921721F040
S11301E0911102C01092030120910001821739F08D
S11301F0811105C0209103012F5F20930301909387
S11302000101809300019F918F912F910F900FBE58
S11302100F901F90189595B5987F95BD94B59C7FC8
S113022094BD95B5977F95BD8330A1F028F48130B6
S113023041F0823051F020C0853081F08730A9F040
S11302401BC084B5816084BD17C084B5826084BD41
S113025047BD12C084B5836084BD0EC084B581607F
S113026084BD85B5886085BD47BD84B5836084BD84
S113027085B5886085BD47BD16BC85B56770682B9C
S113028065BD089580FF02C0569A5E9881FF02C042
S1130290559A5D98089580FF0AC094B59F7394BDE4
S11302A094B540E4649F90011124292B24BD81FF5F
S11302B00CC084B58F7C84BD94B5862F837020E1F7
S11302C0829FB0011124692B64BD089580FF03C08F
S11302D06093050167BD81FF03C06093040168BD9D
S11302E0089580FF07C060930501EEE6F0E0908179
S11302F09260908381FF07C060930401EEE6F0E012
S11303008081846080830895877080936E0008954F
S113031095B387708095982395BB089580910601C5
S11303209091070108951F920F920FB60F92112416
S11303308F939F938091060190910701019690936A
S11303400701809306012D98459844989F918F91B9
S11303500F900FBE0F901F9018951F920F920FB61B
S11303600F9211248F93EF93FF938091050187BD22
S1130370EEE6F0E080818D7F8083FF91EF918F9195
S11303800F900FBE0F901F9018951F920F920FB6EB
S11303900F9211248F93EF93FF938091040188BDF2
S11303A0EEE6F0E080818B7F8083FF91EF918F9167
S11303B00F900FBE0F901F901895AA1BBB1B51E105
S11303C007C0AA1FBB1FA617B70710F0A61BB70BC1
S11303D0881F991F5A95A9F780959095BC01CD0166
S10903E00895F894FFCF1C
S10503E604020B
S9030000FC
