S024000041546D656761333238505F54696D6572305F4E6F746D616C4D6F64652E7372656305
S11300000C9434000C9421010C9451000C94320192
S11300100C9451000C9451000C9451000C94510018
S11300200C9451000C9451000C9451000C94510008
S11300300C9451000C9451000C94FB010C94130289
S11300400C94E4010C9451000C9451000C94510054
S11300500C9451000C9451000C9451000C945100D8
S11300600C9451000C94510011241FBECFEFD8E022
S1130070DEBFCDBF11E0A0E0B1E0E0EAF4E002C0F1
S113008005900D92A230B107D9F721E0A2E0B1E0CA
S113009001C01D92A830B207E1F70E9453000C94EE
S11300A04E020C940000CF93DF931F92CDB7DEB7BE
S11300B019820E94FD000E940D0160E081E00E940F
S11300C0B50160E082E00E94B50161E083E00E9436
S11300D09A0183E00E94910181E00E94D70181E0AE
S11300E00E94D30140E063E080E00E945D017894C7
S11300F0C12CD12C912C0F2EF4EFEF2EFF24F3946E
S1130100F02D0F2EF4E6AF2EF02D6894882484F899
S11301106894BB24B5F801C068010E94DF018C011A
S11301200E94180189830E941E01482FC016D1061F
S113013099F3698170E06F5F7F4FC8010E942B02C1
S1130140892B19F485B18B2585B9980136952795A6
S113015036952795A5ECB0E20E943F0292958295D0
S11301608F7089279F7089278E9D90018F9D300DF8
S11301709E9D300D11240217130719F488B18B25A5
S113018088B998013695279536952795ABE7B4E15C
S11301900E943F0296958795A89E9001A99E300DD6
S11301A011240217130719F488B1882588B9980116
S11301B0ADECBCEC0E943F02969587959695879589
S11301C0969587959C01220F331F880F991F880FDE
S11301D0991F880F991F820F931F0817190709F099
S11301E09BCF442309F498CF84E0980E0E941B010E
S11301F0692D82E00E94C0018FCF85B78F7E85BFB5
S113020052985A9A22982A9A2198299A259A3C9A7D
S11302103D9A2D9844984598089582E0809369000A
S113022081E08DBB8093680086E080936B00089525
S113023080910301089510920201089580910201B2
S113024008951F920F920FB60F9211248F938091ED
S113025002018F5F809302018F910F900FBE0F9068
S11302601F9018951F920F920FB60F9211242F937F
S11302708F939F9393B1927083B184702091010105
S1130280921721F0911102C01092030120910001F4
S1130290821739F0811105C0209103012F5F20934B
S11302A0030190930101809300019F918F912F91FD
S11302B00F900FBE0F901F90189594B59C7F94BD1E
S11302C095B5977F95BD8330A1F028F4813041F036
S11302D0823051F020C0853081F08730A9F01BC0F6
S11302E084B5816084BD17C084B5826084BD47BD78
S11302F012C084B5836084BD0EC084B5816084BDA2
S113030085B5886085BD47BD84B5836084BD85B5EA
S1130310886085BD47BD16BC85B56770682B65BD13
S1130320089580FF02C0569A5E9881FF02C0559AD4
S11303305D98089580FF0AC094B59F7394BD94B5E9
S113034040E4649F90011124292B24BD81FF0CC03B
S113035084B58F7C84BD94B5862F837020E1829F01
S1130360B0011124692B64BD089580FF03C060931C
S1130370050167BD81FF03C06093040168BD089552
S113038080FF07C060930501EEE6F0E09081926083
S1130390908381FF07C060930401EEE6F0E0808162
S11303A0846080830895877080936E000895EEE6DC
S11303B0F0E09081877080959823908308958091D0
S11303C006019091070108951F920F920FB60F92A4
S11303D011248F939F9380910601909107010196B8
S11303E090930701809306019F918F910F900FBE08
S11303F00F901F9018951F920F920FB60F92112411
S11304008F93EF93FF938091050187BDEEE6F0E0B3
S113041080818D7F8083FF91EF918F910F900FBE2C
S11304200F901F9018951F920F920FB60F921124E0
S11304308F93EF93FF938091040188BDEEE6F0E083
S113044080818D7F8083FF91EF918F910F900FBEFC
S11304500F901F901895AA1BBB1B51E107C0AA1F40
S1130460BB1FA617B70710F0A61BB70B881F991F51
S11304705A95A9F780959095BC01CD010895A29F46
S1130480B001B39FC001A39F700D811D1124911D64
S1130490B29F700D811D1124911D0895F894FFCF12
S10504A0040250
S9030000FC
