S01C000041546D656761333238505F5363686564756C65722E73726563EE
S11300000C943C000C946F010C9459000C948001E6
S11300100C9459000C9459000C9459000C945900F8
S11300200C9459000C9459000C9459000C945900E8
S11300300C9459000C9459000C9458040C945900D5
S11300400C9459000C9459000C9459000C945900C8
S11300500C9459000C9459000C9459000C945900B8
S11300600C9459000C945900EB01FC011002240279
S1130070E401F20106021A0211241FBECFEFD8E0F8
S1130080DEBFCDBF12E0A0E0B1E0E6EBF9E002C0D4
S113009005900D92A437B107D9F726E0A4E7B2E0A2
S11300A001C01D92AB39B207E1F70E9440010C94E4
S11300B0D9040C9400000F931F93CF93DF9300D0C7
S11300C000D0CDB7DEB7182F092F8CE28983299889
S11300D041E050E0BE016D5F7F4FCE0101960E946A
S11300E0440209831A83299A00E010E442E050E0B4
S11300F0BE016D5F7F4FCE0101960E944402015004
S11301001109A1F70F900F900F900F90DF91CF91ED
S11301101F910F910895CF92DF92EF92FF920F9368
S11301201F93CF93DF93CDB7DEB765970FB6F894DF
S1130130DEBF0FBECDBFFC01D1908F012DC0F801F1
S113014080818983299841E050E0BE016E5F7F4F32
S1130150CE0101960E944402F801C1800E5F1F4F38
S11301608C2D8F77299AE82EF12CA701BE016E5FA2
S11301707F4FC8010E9444020E0D1F1DCC205CF469
S11301800F5F1F4F4FEF5FEF6AE070E0415051097E
S113019061097109D9F7DA94D110D1CF65960FB6F8
S11301A0F894DEBF0FBECDBFDF91CF911F910F91A9
S11301B0FF90EF90DF90CF9008950F93219A2998A4
S11301C004E020E040E060E081E00E94AB018FE0C9
S11301D00E9433028FEF9FEFA5E0B0E00197A109E1
S11301E0B109E1F78CE192E00E948B0080E098EF86
S11301F00E945B000F910895FFCFFFCFFFCF0895BA
S113020089B1847080930101429A80910101909197
S11302100001981731F0811104C0429881E0809365
S11302207602809101018093000108950E94A20248
S1130230C82F809176028130F9F4E0917402F09134
S11302407502EE0FFF1FEC5FFE4F808191810E94CB
S11302505B0080917402909175028C38910530F4A2
S11302600196909375028093740204C010927502F3
S113027010927402109276028C2F0E94A602D6CF9E
S11302800E945D010E94DD0024E630E040E051E080
S11302906AEF70E08FEF90E00E9427032EEF30E0CA
S11302A04DEF50E06CEF70E086E191E00E94660350
S11302B00E944A0480E090E0089585B78F7E85BF50
S11302C052985A9A53985B9A54985C9A259A389AF9
S11302D0399A3A9A2D9840984198429808951F92D5
S11302E00F920FB60F9211248F93809177028F5F34
S11302F0809377028F910F900FBE0F901F901895E7
S11303001F920F920FB60F9211242F938F939F93E6
S113031093B1927083B1847020910301921721F0FC
S1130320911102C01092780220910201821739F0D3
S1130330811105C0209178022F5F20937802909359
S11303400301809302019F918F912F910F900FBE13
S11303500F901F9018950F931F939CB59F7B9CBD86
S1130360811104C08CB58F7E8CBD03C08CB58061B7
S11303708CBD611104C08CB58F7D8CBD03C08CB560
S113038080628CBD411104C08CB5877F8CBD03C0D5
S11303908CB588608CBD211104C08CB58B7F8CBD5D
S11303A003C08CB584608CBD8CB58C7F8CBD8DB541
S11303B08E7F8DBD10E00830110508F04EC0F801A5
S11303C0EC5CFF4F0C94D3048CB58C7F8CBD8DB545
S11303D081608DBD42C08CB58C7F8CBD8DB58E7F08
S11303E08DBD3BC08CB58D7F8CBD8CB581608CBDC3
S11303F08DB581608DBD31C08CB58D7F8CBD8CB5C4
S113040081608CBD8DB58E7F8DBD27C08CB58E7FF0
S11304108CBD8CB582608CBD8DB581608DBD1DC0D9
S11304208CB58E7F8CBD8CB582608CBD8DB58E7F76
S11304308DBD13C08CB581608CBD8CB582608CBDC4
S11304408DB581608DBD09C08CB581608CBD8CB5C6
S113045082608CBD8DB58E7F8DBD8CB580648CBD66
S11304601F910F91089583FF02C0259A2D9881FF53
S113047002C024982C9A82FF02C0239A2B9880FFF2
S113048002C0229A2A9A0895FB010DB407FE02C005
S11304902EB520832A984115510589F0A82FB92F2C
S11304A04E0F5F1F8CB580618CBD8D918EBD0DB4D8
S11304B007FEFDCF8EB58193E417F50799F72A9AC5
S11304C0089595B5987F95BD94B59C7F94BD95B5D9
S11304D0977F95BD8330A1F028F4813041F08230BC
S11304E051F020C0853081F08730A9F01BC084B55D
S11304F0816084BD17C084B5826084BD47BD12C0CD
S113050084B5836084BD0EC084B5816084BD85B527
S1130510886085BD47BD84B5836084BD85B588602A
S113052085BD47BD16BC85B56770682B65BD08954C
S1130530877080936E00089595B387708095982393
S113054095BB08958FB7F894807808959FB7892B49
S11305508FBF089590E0FC01EE0FFF1FEE0FFF1F09
S1130560E557F94F982F88279C012F593C4F318329
S113057020838B579D4FFC01E150FF4F21E02083E6
S1130580319722E02083319723E02083319724E0C0
S11305902083319725E02083319726E0208331970B
S11305A027E02083319728E02083319729E02083B6
S11305B0319720E12083319721E12083319722E193
S11305C02083319723E12083319724E120833197DD
S11305D025E12083319726E12083319727E1208389
S11305E0319728E12083319729E12083319720E254
S11305F02083319721E22083319722E220833197AF
S113060023E22083319724E22083319725E220835B
S1130610319726E22083319727E22083319728E21D
S11306202083319729E22083319720E32083319777
S113063021E32083319722E32083319723E320832E
S1130640319724E32083319725E320830895909301
S11306508A0680938906509388064093870661151D
S1130660710529F0709384026093830206C081E0CF
S113067090E090938402809383022115310529F040
S1130680309382022093810206C081E090E090932F
S113069082028093810240918302509184022091CE
S11306A0810230918202429FC001439F900D529F6C
S11306B0900D1124A0E0B0E080937D0290937E021F
S11306C0A0937F02B093800280E008959F92AF923E
S11306D0BF92CF92DF92EF92FF920F931F93CF932B
S11306E0DF93982EA92EB62EC72ED42EE52EF22EE9
S11306F0032F0E94A202182FCBE8D6E08FE896E0E1
S11307009B838A8383E996E09F838E8387E996E0BF
S11307109B878A87DF87CE8780E00E94AA02909217
S11307208403A092830381E00E94AA02B09284040D
S1130730C092830482E00E94AA02D0928405E092CF
S1130740830583E00E94AA02F09284060093830644
S1130750D0938606C0938506812F0E94A60280E06E
S1130760DF91CF911F910F91FF90EF90DF90CF9089
S1130770BF90AF909F9008956091790270917A0232
S113078080917B0290917C0220917D0230917E02C7
S113079040917F02509180020E94B10460937902DB
S11307A070937A0280937B0290937C02209183025F
S11307B03091840240E050E00E94B104672B682B22
S11307C0692B29F4E0918906F0918A060995209114
S11307D081023091820240E050E060917902709190
S11307E07A0280917B0290917C020E94B104672B73
S11307F0682B692B29F4E0918706F0918806099506
S11308008091790290917A02A0917B02B0917C024E
S11308100196A11DB11D8093790290937A02A09351
S11308207B02B0937C02E0918506F091860682817A
S1130830938190938606809385060895E0918506BA
S1130840F0918606019010800DBE1EBEFF91EF91BF
S1130850DF91CF91BF91AF919F918F917F916F91D4
S11308605F914F913F912F911F910F91FF90EF90C6
S1130870DF90CF90BF90AF909F908F907F906F90BC
S11308805F904F903F902F901F900F900FBE0F904E
S11308907894089582E00E949C0282E00E9498026B
S11308A04BEF63E082E00E9461020E941E040895FF
S11308B0F8940F920FB60F921F922F923F924F927D
S11308C05F926F927F928F929F92AF92BF92CF92DC
S11308D0DF92EF92FF920F931F932F933F934F93C7
S11308E05F936F937F938F939F93AF93BF93CF93B4
S11308F0DF93EF93FF930DB61EB6E0918506F0915A
S11309008606019210820E94BC03E0918506F09154
S11309108606019010800DBE1EBEFF91EF91DF91FF
S1130920CF91BF91AF919F918F917F916F915F9183
S11309304F913F912F911F910F91FF90EF90DF9076
S1130940CF90BF90AF909F908F907F906F905F906B
S11309504F903F902F901F900F900FBE0F90789460
S11309601895A1E21A2EAA1BBB1BFD010DC0AA1FDC
S1130970BB1FEE1FFF1FA217B307E407F50720F004
S1130980A21BB30BE40BF50B661F771F881F991F7F
S11309901A9469F760957095809590959B01AC01C8
S11309A0BD01CF010895EE0FFF1F0590F491E02DD6
S10909B00994F894FFCF46
S11309B604040402000045A1A0FE1FF855AD0088FA
S11309C65AFFFF07FA7FFFF7BBF738FF59FF1F00EF
S11309D65C89DFF7D0DDF45CE07F43D3EAFBBD64DA
S11309E6DBFFA7D8FF071100510421BC2003ADBDCE
S11309F61188455360FC9999AFECF18DF149692A48
S1130A067A061A90B2F8FF054D6B9F1C04B1DEFFFF
S1130A164424FBDEDFFF24DD10840004E5AFFEF78B
S1130A2656FBEBCA1048FEFF31F73FE79EFFE07F17
S1130A36D9FFDCAE10F4FFE7DAFF72979AD6B8FD59
S1130A460FFD95257F8653743BB6FCFFE00766369B
S1130A569CFF1FF8008075661900BABA9B938E3DF9
S1130A665D7BD307994EB0C0CE18FFF73CFF36FF27
S1130A76F5FE1000BCFF0084646C20FD20FA9ADBAE
S1130A8655EFD39F7DAF92DB7AFFD7FE27CC19FEB5
S1130A961BDD1CB7108000F871BC5C43228A0EFC77
S1130AA62CF54A2CBDFF85A218C67D86D96A127418
S1130AB6DFFFEF071644B1D51004FBDD08FB1A4728
S1130AC61DECF6F6FFFFBEF7E0FF669E110100116E
S1130AD6003A0105260104F20101E00F3F251C1E20
S1130AE620122A9024110000000000E10F2020208B
S1130AF620050015A73D18252A2B2B3AB102080814
S1130B06B40107C0020A02C10102C502505BC70153
S1130B16402A840000007FFA2B040000009F36015F
S1070B26C8290000D6
S9030000FC
