S01C000041546D656761333238505F5363686564756C65722E73726563EE
S11300000C9473000C94C3030C9490000C94900013
S11300100C9490000C9490000C9490000C9490001C
S11300200C9490000C94D4030C9490000C949000C5
S11300300C9490000C9490000C9490000C949000FC
S11300400C9490000C9490000C9490000C949000EC
S11300500C9490000C94AF060C9490000C949000B7
S11300600C9490000C9490000C9490000C949000CC
S11300700C9490000C9490000C9490000C949000BC
S11300800C9490000C9490000C9490000C949000AC
S11300900C9490000C9490000C9490000C9490009C
S11300A00C9490000C9490000C94900047032D0342
S11300B01103F9027B036A0309037B037B037B03BC
S11300C07B037B037B037B037B037B037B037B033C
S11300D07B037B039A033F045004640478043804CC
S11300E046045A046E0411241FBECFEFDAE0DEBFCB
S11300F0CDBF13E0A0E0B1E0E6E3FFE002C005906D
S11301000D92A630B107D9F729E0A6E0B3E001C00B
S11301101D92A53CB207E1F70E94DB010C949907FC
S11301200C9400006F927F928F929F92AF92BF9235
S1130130CF92DF92EF92FF920F931F93CF93DF93AF
S1130140CDB7DEB7A2970FB6F894DEBF0FBECDBF12
S113015038018E010F5F1F4FA5E1F8011192AA9596
S1130160E9F71E8A1F8A188E198E1A8E2B8F3C8FE0
S11301704D8F5E8F6F8F78A389A39AA31D8A4E013A
S1130180F5E18F0E911C2B8D3C8D4D8D5E8D6F8D09
S113019078A189A19AA10F2EFAE0AF2EF02DB12CEF
S11301A0C12CD12CE12CF12C00E010E00E942E0790
S11301B0822F932FA42FB52F8E8B9F8BA88FB98F4F
S11301C08E899F89A88DB98D805DF40182934F013A
S11301D02B8D3C8D4D8D5E8D6F8D78A189A19AA15B
S11301E00E9430072B8F3C8F4D8F5E8F6F8F78A3CB
S11301F089A39AA3A0E00E948D0729F69E012B5E95
S11302003F4F28193909832F880F880B2B8F3C8F78
S11302108D8F8E8F8F8F88A389A38AA38B8D9C8DBE
S11302209D8D9E8D9F8D98A199A19AA18A8F8A8D6B
S1130230882384F09A8D8A8DF301E90FF11DD4018E
S1130240A80FB11D8C9180838A8D81508A8F8A8DED
S1130250882384F78B8D9C8D9D8D9E8D9F8D98A179
S113026099A19AA1A2960FB6F894DEBF0FBECDBF96
S1130270DF91CF911F910F91FF90EF90DF90CF907E
S1130280BF90AF909F908F907F906F90089589B1A9
S11302908170809303018E9A8091030190910201F1
S11302A0981741F0811106C08E98809106038F5FE4
S11302B0809306038091030180930201089589B11C
S11302C08071809301018D9A8091010190910001C8
S11302D0981741F0811106C08D98809107038F5FB4
S11302E08093070380910101809300010895CF93C7
S11302F0DF93CDB7DEB72A970FB6F894DEBF0FBEF3
S1130300CDBF80E290E09A838983FE01339688E032
S1130310DF011D928A95E9F70E94F104F09007032A
S11303200E94F5048E010F5F1F4F2F2D30E040E037
S113033050E060E070E080E090E00E94920088E08D
S113034093E00E9455068F9A88E093E00E94690624
S1130350E3CFCF93DF93CDB7DEB72A970FB6F894E8
S1130360DEBF0FBECDBF80E290E09A838983FE0199
S1130370339688E0DF011D928A95E9F70E94F10423
S1130380F09006030E94F5048E010F5F1F4F2F2D7E
S113039030E040E050E060E070E080E090E00E94F7
S11303A0920088E093E00E9455068F9888E093E0DD
S11303B00E946906E3CFCF93DF9300D0CDB7DEB7B9
S11303C019821A820E94B1030E94250260E080E033
S11303D00E949F020E94B002AE014E5F5F4FBE01B9
S11303E06F5F7F4F86E091E00E94C00261E088E089
S11303F093E00E94520624E630E04FE551E06AEFB4
S113040070E087E491E00E947D0569EA71E087E786
S113041091E00E94BC050E94A10680E090E00F904C
S11304200F90DF91CF910895CF93DF931F92CDB7B3
S1130430DEB78983889861E070E0CE0101960E945E
S113044098040F90DF91CF9108950F93809A889824
S113045004E020E040E060E081E00E94FF038FE0E0
S11304600E9487048FEF9FEFA5E0B0E00197A109F8
S1130470B109E1F781E20E94140280EB0E941402A8
S113048084E00E94140284E10E94140280E20E942B
S113049014028CE00E9414020F910895CF93DF930D
S11304A01F92CDB7DEB78983889A61E070E0CE01F0
S11304B001960E9498040F90DF91CF910895CF93F5
S11304C0DF93C0EEC80F0AF180E00E944E028C2F29
S11304D0CC0F990BEC01CC0FDD1FCC0FDD1FC80F27
S11304E0D91FCA5DDE4F88810E944E0289810E9415
S11304F04E028A810E944E028B810E944E028C81A0
S11305000E944E0280E00E944E02DF91CF91089536
S1130510CF93C62F8C3008F080E0C63008F0C0E0DE
S1130520982F990F990F990F981B892F80680E9413
S113053014028C2F80640E941402CF910895CF93EB
S1130540C62F843508F080E0C63008F0C0E080682B
S11305500E9414028C2F80640E941402CF9108958B
S1130560CF93DF93C8EFD1E080E00E944E02219741
S1130570D9F760E080E00E949F02DF91CF91089557
S1130580BF92CF92DF92EF92FF920F931F93CF937C
S1130590DF93E82EF92E8B016A01FB0180818F70B5
S11305A0282F30E02C30310514F0108202C0FB01FA
S11305B08083F6018081863008F01082F601608124
S11305C0F80180810E948802CE2DDF2DE12CF12CD0
S11305D00F2EFBE0BF2EF02DB1C0482F50E0FA01E2
S11305E03797E531F10508F086C0EA5AFF4F0C94BD
S11305F02807F60180818F5F863010F4808302C063
S1130600F6011082F6016081F80180810E9488025F
S113061099C0F8011082F601608180E00E9488028E
S113062091C0F8012081822F8F7090E009971CF40B
S11306302D5F20830BC0F8011082F60180818F5F4B
S1130640863010F4808302C0F6011082F6016081C6
S1130650F80180810E94880275C0F80180818111AF
S113066005C0F6018081811105C00AC08150F801DE
S1130670808306C0F801B082F601808181508083B6
S1130680F6016081F80180810E9488025BC0F80154
S11306908081811105C0F6018081811105C00AC0E5
S11306A08150F801808306C0F801B082F601808190
S11306B081508083F6016081F80180810E94880264
S11306C080E20E945F02F6016081F80180810E944D
S11306D0880238C0F6011082F80110820E94B0022C
S11306E088EB9BE00197F1F7F6016081F8018081C6
S11306F00E94880227C00E945F02F80180818F5FF8
S1130700282F2F7030E02C30310514F480831AC068
S1130710F8011082F60180818F5F863010F48083A7
S113072002C0F6011082F6016081F80180810E9406
S1130730880208C0FFEFEF1AFF0A08C089918111EF
S11307404CCF04C08FEFE81AF80AF8CFC701DF9145
S1130750CF911F910F91FF90EF90DF90CF90BF90BA
S1130760089585B78F7E85BF54985C9A5098589A9F
S11307705198599A3F9A879A869A859A47988F985A
S11307808E988D9808951F920F920FB60F92112490
S11307908F93809109038F5F809309038F910F904A
S11307A00FBE0F901F9018951F920F920FB60F92C5
S11307B011242F938F939F9393B1927083B184707C
S11307C020910501921721F0911102C010920A03A1
S11307D020910401821739F0811105C020910A0388
S11307E02F5F20930A0390930501809304019F9146
S11307F08F912F910F900FBE0F901F9018950F930C
S11308001F939CB59F7B9CBD811104C08CB58F7ECA
S11308108CBD03C08CB580618CBD611104C08CB5E6
S11308208F7D8CBD03C08CB580628CBD411104C02A
S11308308CB5877F8CBD03C08CB588608CBD2111BD
S113084004C08CB58B7F8CBD03C08CB584608CBD1B
S11308508CB58C7F8CBD8DB58E7F8DBD10E008303E
S1130860110508F04EC0F801E559FF4F0C94280714
S11308708CB58C7F8CBD8DB581608DBD42C08CB52F
S11308808C7F8CBD8DB58E7F8DBD3BC08CB58D7F2F
S11308908CBD8CB581608CBD8DB581608DBD31C042
S11308A08CB58D7F8CBD8CB581608CBD8DB58E7FF4
S11308B08DBD27C08CB58E7F8CBD8CB582608CBD00
S11308C08DB581608DBD1DC08CB58E7F8CBD8CB502
S11308D082608CBD8DB58E7F8DBD13C08CB581605B
S11308E08CBD8CB582608CBD8DB581608DBD09C019
S11308F08CB581608CBD8CB582608CBD8DB58E7FCE
S11309008DBD8CB580648CBD1F910F91089583FFBC
S113091002C0219A299881FF02C023982B9A82FF52
S113092002C0229A2A9880FF02C0209A289A089529
S11309300DB407FC2EB528986115710579F0FC01FA
S1130940680F791F9CB590619CBD91919EBD0DB4BB
S113095007FEFDCF8EB5E617F707A1F7289A08958D
S113096095B5987F95BD94B59C7F94BD95B5977FBB
S113097095BD8330A1F028F4813041F0823051F0EC
S113098020C0853081F08730A9F01BC084B5816018
S113099084BD17C084B5826084BD47BD12C084B5D0
S11309A0836084BD0EC084B5816084BD85B58860D4
S11309B085BD47BD84B5836084BD85B5886085BD2C
S11309C047BD16BC85B56770682B65BD08958770F3
S11309D080936E00089595B387708095982395BB96
S11309E008958FB7F894807808959FB7892B8FBFA7
S11309F00895282F30E0F901EE0FFF1FEE0FFF1FBF
S1130A00E354F64F40E553E0249FC001259F900D29
S1130A10349F900D11249C012D5B394F3183208329
S1130A20895E9C4FFC01E15BFC4F21E02083319700
S1130A3022E02083319720E8208331972083319767
S1130A4025E02083319726E02083319727E0208317
S1130A50319728E02083319729E02083319720E1E2
S1130A602083319721E12083319722E1208331973C
S1130A7023E12083319724E12083319725E12083EA
S1130A80319726E12083319727E12083319728E1AC
S1130A902083319729E12083319720E22083319705
S1130AA021E22083319722E22083319723E22083BD
S1130AB0319724E22083319725E22083319726E27F
S1130AC02083319727E22083319728E220833197CE
S1130AD029E22083319720E32083319721E3208387
S1130AE0319722E32083319723E32083319724E352
S1130AF02083319725E3208308959093BC09809344
S1130B00BB095093BA094093B9096115710529F0DD
S1130B10709316036093150306C081E090E09093F0
S1130B201603809315032115310529F0309314031E
S1130B302093130306C081E090E090931403809304
S1130B401303409115035091160320911303309120
S1130B501403429FC001439F900D529F900D112496
S1130B60A0E0B0E080930F0390931003A0931103CF
S1130B70B093120380E00895DF92EF92FF920F93F7
S1130B801F93CF93DF93D82EE92EF62E072F0E94C2
S1130B90F104182FCDEBD9E081EC99E09B838A8393
S1130BA0DF83CE8380E00E94F904D0926606E0924F
S1130BB0650681E00E94F904F092B6090093B50934
S1130BC0D093B809C093B709812F0E94F50480E03F
S1130BD0DF91CF911F910F91FF90EF90DF900895D7
S1130BE060910B0370910C0380910D0390910E039F
S1130BF020910F033091100340911103509112037F
S1130C000E94060760930B0370930C0380930D03FB
S1130C1090930E03209115033091160340E050E0A9
S1130C200E940607672B682B692B29F4E091BB0906
S1130C30F091BC090995209113033091140340E00D
S1130C4050E060910B0370910C0380910D0390911F
S1130C500E030E940607672B682B692B29F4E09189
S1130C60B909F091BA09099580910B0390910C038D
S1130C70A0910D03B0910E030196A11DB11D8093A7
S1130C800B0390930C03A0930D03B0930E03E09118
S1130C90B709F091B809828193819093B809809340
S1130CA0B7090895FC0160830895CF93DF93EC01A5
S1130CB00E94F1049881911105C07894F894988168
S1130CC09923D9F3915098830E94F504DF91CF9131
S1130CD00895CF93DF93EC010E94F10498819F5F04
S1130CE098830E94F504DF91CF910895E091B709AC
S1130CF0F091B809019010800DBE1EBE0F901F9098
S1130D002F903F904F905F906F907F908F909F9027
S1130D10AF90BF90CF90DF90EF90FF900F911F9115
S1130D202F913F914F915F916F917F918F919F91FF
S1130D30AF91BF91CF91DF91EF91FF91FFBFFF91F1
S1130D40089582E00E94EB0482E00E94E7044BEFE6
S1130D5063E082E00E94B0040E9476060895FF9347
S1130D60FFB7FF93EF93DF93CF93BF93AF939F931B
S1130D708F937F936F935F934F933F932F931F931F
S1130D800F93FF92EF92DF92CF92BF92AF929F9216
S1130D908F927F926F925F924F923F922F921F9207
S1130DA00F920DB61EB6E091B709F091B809019201
S1130DB010820E94F005E091B709F091B809019002
S1130DC010800DBE1EBE0F901F902F903F904F902D
S1130DD05F906F907F908F909F90AF90BF90CF90D7
S1130DE0DF90EF90FF900F911F912F913F914F91C2
S1130DF05F916F917F918F919F91AF91BF91CF91AF
S1130E00DF91EF91FF91FFBFFF911895A1E21A2E98
S1130E10AA1BBB1BFD010DC0AA1FBB1FEE1FFF1F9A
S1130E20A217B307E407F50720F0A21BB30BE40BEA
S1130E30F50B661F771F881F991F1A9469F7609531
S1130E407095809590959B01AC01BD01CF010895EB
S1130E50EE0FFF1F0590F491E02D0994689401C0F2
S1130E60E8948F929F92CF93DF930E943C07DF9187
S1130E70CF919F908F90089588249924F401E401E0
S1130E80B0E49F93AA279A158B049C04ED05FE05F4
S1130E90CF05D007A10798F4AD2FDC2FCF2FFE2F5D
S1130EA0E92D982C892E982F872F762F652F542F74
S1130EB0432F322F2227B85031F7BF9127C01B2E62
S1130EC0BF91BB27220F331F441F551F661F771F77
S1130ED0881F991F881C991CEE1FFF1FCC1FDD1F44
S1130EE0AA1FBB1F8A149B04EC05FD05CE05DF0574
S1130EF0A007B10748F08A189B08EC09FD09CE0940
S1130F00DF09A00BB10B21601A94E1F62EF49401D1
S1130F10AF01BE01CD01000C08950024A7FD00948B
S1130F202A173005400550056005700580059005B9
S1090F300895F894FFCFC0
S1130F36101001010402496E446576204D757465EE
S1130F46780A0D426F746F6E20313A0A0D426F743F
S1130F566F6E20323A00000000000000005F0000BF
S1130F660007000700147F147F14242A7F2A122303
S1130F761308646236495522500005030000001C1C
S1130F862241000041221C0014083E081408083EB1
S1130F9608080050300000080808080800606000CF
S1130FA60020100804023E5149453E00427F40009D
S1130FB642615149462141454B311814127F10278D
S1130FC6454545393C4A49493001710905033649C5
S1130FD6494936064949291E003636000000563668
S1130FE6000008142241001414141414004122149D
S1130FF6080201510906324979413E7E1111117EDA
S11310067F494949363E414141227F4141221C7F65
S1131016494949417F090909013E4149497A7F08FD
S113102608087F00417F41002040413F017F0814AA
S113103622417F404040407F020C027F7F0408101B
S11310467F3E4141413E7F090909063E4151215EE9
S11310567F09192946464949493101017F01013F62
S11310664040403F1F2040201F3F4038403F63140C
S113107608146307087008076151494543007F4116
S1131086410002040810200041417F0004020102CD
S11310960440404040400001020400205454547867
S11310A67F484444383844444420384444487F38CC
S11310B654545418087E0901020C5252523E7F08B9
S11310C604047800447D40002040443D007F1028FD
S11310D6440000417F40007C041804787C08040422
S11310E67838444444387C14141408081414187CBE
S11310F67C080404084854545420043F4440203CCB
S11311064040207C1C2040201C3C4030403C44286D
S11311161028440C5050503C4464544C4400083647
S1131126410000007F000000413608001008081046
S1091136081F247C241FA5
S9030000FC
