S01C000041546D656761333238505F5363686564756C65722E73726563EE
S11300000C9434000C9498000C9451000C94A900A6
S11300100C9451000C9451000C9451000C94510018
S11300200C9451000C9451000C9451000C94510008
S11300300C9451000C9451000C94CB020C9451007C
S11300400C9451000C9451000C9451000C945100E8
S11300500C9451000C9451000C9451000C945100D8
S11300600C9451000C94510011241FBECFEFD8E022
S1130070DEBFCDBF11E0A0E0B1E0E0E9F6E002C0F0
S113008005900D92A230B107D9F725E0A2E0B1E0C6
S113009001C01D92A632B207E1F70E946B000C94D6
S11300A046030C940000FFCFFFCF90E285B189276F
S11300B085B9FCCF98B180E2892788B9089598B1B1
S11300C080E1892788B908950E941501439A4398CD
S11300D00E941901F9CF0E94860024EF31E04FE518
S11300E050E06AEF70E08AE590E00E949A0125E50D
S11300F030E044E550E063E570E084E690E00E947F
S1130100D9010E94BD0280E090E0089585B78F7EFA
S113011085BF52985A9A22982A9A2198299A259A00
S11301203C9A3D9A3B9A2D98449845984398089553
S11301301F920F920FB60F9211248F938091020198
S11301408F5F809302018F910F900FBE0F901F90CD
S113015018951F920F920FB60F9211242F938F931D
S11301609F9393B1927083B184702091010192178F
S113017021F0911102C01092030120910001821715
S113018039F0811105C0209103012F5F20930301F1
S113019090930101809300019F918F912F910F9073
S11301A00FBE0F901F90189595B5987F95BD94B587
S11301B09C7F94BD95B5977F95BD8330A1F028F4BD
S11301C0813041F0823051F020C0853081F0873099
S11301D0A9F01BC084B5816084BD17C084B582605A
S11301E084BD47BD12C084B5836084BD0EC084B590
S11301F0816084BD85B5886085BD47BD84B5836055
S113020084BD85B5886085BD47BD16BC85B567705E
S1130210682B65BD0895877080936E00089595B32B
S113022087708095982395BB08958FB7F89480784C
S113023008959FB7892B8FBF089590E0FC01EE0FBE
S1130240FF1FEE0FFF1FEA5EFA4F982F88279C01CD
S113025024513E4F31832083805F9E4FFC01E15047
S1130260FF4F21E02083319722E02083319723E060
S11302702083319724E02083319725E02083319730
S113028026E02083319727E02083319728E02083DC
S1130290319729E02083319720E12083319721E1B0
S11302A02083319722E12083319723E12083319702
S11302B024E12083319725E12083319726E12083AF
S11302C0319727E12083319728E12083319729E171
S11302D02083319720E22083319721E220833197D4
S11302E022E22083319723E22083319724E2208382
S11302F0319725E22083319726E22083319727E244
S11303002083319728E22083319729E22083319793
S113031020E32083319721E32083319722E3208354
S1130320319723E32083319724E32083319725E316
S11303302083089590931505809314055093130515
S1130340409312056115710529F070930F016093B4
S11303500E0106C081E090E090930F0180930E019E
S11303602115310529F030930D0120930C0106C0AD
S113037081E090E090930D0180930C0140910E0177
S113038050910F0120910C0130910D01429FC00149
S1130390439F900D529F900D1124A0E0B0E08093F4
S11303A0080190930901A0930A01B0930B0180E026
S11303B008959F92AF92BF92CF92DF92EF92FF92F5
S11303C00F931F93CF93DF93982EA92EB62EC72E8B
S11303D0D42EE52EF22E032F0E941501182FC6E10C
S11303E0D5E08AE195E09B838A838EE195E09F8343
S11303F08E8382E295E09B878A87DF87CE8780E0C1
S11304000E941D0190920F02A0920E0281E00E94B0
S11304101D01B0920F03C0920E0382E00E941D01E1
S1130420D0920F04E0920E0483E00E941D01F0922A
S11304300F0500930E05D0931105C0931005812F6D
S11304400E94190180E0DF91CF911F910F91FF90DD
S1130450EF90DF90CF90BF90AF909F900895609100
S1130460040170910501809106019091070120918A
S113047008013091090140910A0150910B010E9439
S11304802403609304017093050180930601909303
S1130490070120910E0130910F0140E050E00E94CD
S11304A02403672B682B692B29F4E0911405F09140
S11304B01505099520910C0130910D0140E050E0A3
S11304C060910401709105018091060190910701EA
S11304D00E942403672B682B692B29F4E0911205F1
S11304E0F091130509958091040190910501A09163
S11304F00601B09107010196A11DB11D809304016D
S113050090930501A0930601B0930701E0911005B3
S1130510F0911105828193819093110580931005C8
S11305200895E0911005F0911105019010800DBE21
S11305301EBEFF91EF91DF91CF91BF91AF919F913B
S11305408F917F916F915F914F913F912F911F9167
S11305500F91FF90EF90DF90CF90BF90AF909F905E
S11305608F907F906F905F904F903F902F901F904F
S11305700F900FBE0F907894089582E00E940F01AF
S113058082E00E940B014BEF63E082E00E94D40002
S11305900E9491020895F8940F920FB60F921F9241
S11305A02F923F924F925F926F927F928F929F927F
S11305B0AF92BF92CF92DF92EF92FF920F931F936D
S11305C02F933F934F935F936F937F938F939F9357
S11305D0AF93BF93CF93DF93EF93FF930DB61EB604
S11305E0E0911005F0911105019210820E942F02F2
S11305F0E0911005F0911105019010800DBE1EBE12
S1130600FF91EF91DF91CF91BF91AF919F918F9126
S11306107F916F915F914F913F912F911F910F9116
S1130620FF90EF90DF90CF90BF90AF909F908F900E
S11306307F906F905F904F903F902F901F900F90FE
S11306400FBE0F9078941895A1E21A2EAA1BBB1B1B
S1130650FD010DC0AA1FBB1FEE1FFF1FA217B3078A
S1130660E407F50720F0A21BB30BE40BF50B661FA0
S1130670771F881F991F1A9469F760957095809564
S113068090959B01AC01BD01CF010895F894FFCF73
S105069004025E
S9030000FC
