S01C000041546D656761333238505F5363686564756C65722E73726563EE
S11300000C9456000C9433020C9473000C947300FB
S11300100C9473000C9473000C9473000C94730090
S11300200C9473000C9444020C9473000C947300AD
S11300300C9473000C9473000C9473000C94730070
S11300400C9473000C9473000C9473000C94730060
S11300500C9473000C9488040C9473000C94730037
S11300600C9473000C9473000C9473000C94730040
S11300700C9473000C9473000C9473000C94730030
S11300800C9473000C9473000C9473000C94730020
S11300900C9473000C9473000C9473000C94730010
S11300A00C9473000C9473000C94730011241FBE01
S11300B0CFEFDAE0DEBFCDBF12E0A0E0B1E0E0EECA
S11300C0FAE002C005900D92A63EB107D9F729E0E7
S11300D0A6EEB2E001C01D92A43AB207E1F70E9475
S11300E0A3010C946E050C9400006F927F928F9282
S11300F09F92AF92BF92CF92DF92EF92FF920F93B3
S11301001F93CF93DF93CDB7DEB7A2970FB6F894C2
S1130110DEBF0FBECDBF38018E010F5F1F4FA5E1BB
S1130120F8011192AA95E9F71E8A1F8A188E198E72
S11301301A8E2B8F3C8F4D8F5E8F6F8F78A389A380
S11301409AA31D8A4E01F5E18F0E911C2B8D3C8DD7
S11301504D8D5E8D6F8D78A189A19AA10F2EFAE045
S1130160AF2EF02DB12CC12CD12CE12CF12C00E0C0
S113017010E00E940305822F932FA42FB52F8E8B9E
S11301809F8BA88FB98F8E899F89A88DB98D805D2B
S1130190F40182934F012B8D3C8D4D8D5E8D6F8DBF
S11301A078A189A19AA10E9405052B8F3C8F4D8FC0
S11301B05E8F6F8F78A389A39AA3A0E00E94620543
S11301C029F69E012B5E3F4F28193909832F880F8A
S11301D0880B2B8F3C8F8D8F8E8F8F8F88A389A355
S11301E08AA38B8D9C8D9D8D9E8D9F8D98A199A1A9
S11301F09AA18A8F8A8D882384F09A8D8A8DF3013F
S1130200E90FF11DD401A80FB11D8C9180838A8D53
S113021081508A8F8A8D882384F78B8D9C8D9D8D48
S11302209E8D9F8D98A199A19AA1A2960FB6F8943C
S1130230DEBF0FBECDBFDF91CF911F910F91FF9015
S1130240EF90DF90CF90BF90AF909F908F907F9072
S11302506F90089589B18170809303018E9A809183
S1130260030190910201981719F0811101C08E9831
S11302708091030180930201089589B18071809374
S113028001018D9A8091010190910001981741F02C
S1130290811106C08D988091E6028F5F8093E602FB
S11302A0809101018093000108950E94C8020E9478
S11302B0CC0287EE92E00E942D0481B3805881BB6A
S11302C087EE92E00E94410480E593EC0197F1F7F8
S11302D080E593EC0197F1F7E8CFCF93DF93CDB7A7
S11302E0DEB72A970FB6F894DEBF0FBECDBF0E94CB
S11302F0C8020E94CC028E010F5F1F4F2AE030E03B
S113030040E050E060E070E080E090E00E94750022
S113031087EE92E00E942D0488B1805888B962E08B
S113032089E00E940A028FE40E94E10187EE92E0D4
S11303300E94410480E593EC0197F1F780E593EC8A
S11303400197F1F7D4CF0E94210261E087EE92E099
S11303500E942A0424E630E04DE351E06AEF70E0A5
S11303608AE291E00E9455036DE671E085E591E033
S11303700E9494030E947A0480E090E00895CF9351
S1130380DF931F92CDB7DEB78983889861E070E070
S1130390CE0101960E946F020F90DF91CF910895D4
S11303A0CF93DF931F92CDB7DEB78983889A61E03C
S11303B070E0CE0101960E946F020F90DF91CF9101
S11303C00895CF93DF93C0EEC80F0AF180E00E9436
S11303D0D0018C2FCC0F990BEC01CC0FDD1FCC0F6F
S11303E0DD1FC80FD91FCA5FDE4F88810E94D0016C
S11303F089810E94D0018A810E94D0018B810E9450
S1130400D0018C810E94D00180E00E94D001DF9154
S1130410CF910895CF93C62F8C3008F080E0C6307A
S113042008F0C0E0982F990F990F990F981B892F06
S113043080680E94BF018C2F80640E94BF01CF910D
S1130440089585B78F7E85BF54985C9A5098589AC2
S11304505198599A3F9A879A869A859A47988F987D
S11304608E988D9808951F920F920FB60F921124B3
S11304708F938091E8028F5F8093E8028F910F90B1
S11304800FBE0F901F9018951F920F920FB60F92E8
S113049011242F938F939F9393B1927083B184709F
S11304A020910501921721F0911102C01092E902E6
S11304B020910401821739F0811105C02091E902CD
S11304C02F5F2093E90290930501809304019F918B
S11304D08F912F910F900FBE0F901F9018950DB410
S11304E007FC2EB528986115710579F0FC01680F99
S11304F0791F9CB590619CBD91919EBD0DB407FE82
S1130500FDCF8EB5E617F707A1F7289A089595B59C
S1130510987F95BD94B59C7F94BD95B5977F95BD07
S11305208330A1F028F4813041F0823051F020C0B2
S1130530853081F08730A9F01BC084B5816084BD0B
S113054017C084B5826084BD47BD12C084B5836082
S113055084BD0EC084B5816084BD85B5886085BDC9
S113056047BD84B5836084BD85B5886085BD47BDBE
S113057016BC85B56770682B65BD08958770809338
S11305806E00089595B387708095982395BB089560
S11305908FB7F894807808959FB7892B8FBF0895FB
S11305A0282F30E0F901EE0FFF1FEE0FFF1FE45676
S11305B0F64F40E553E0249FC001259F900D349FE2
S11305C0900D11249C012E5D394F318320838A5074
S11305D09D4FFC01E15BFC4F21E02083319722E039
S11305E02083319723E02083319724E020833197BF
S11305F025E02083319726E02083319727E020836C
S1130600319728E02083319729E02083319720E136
S11306102083319721E12083319722E12083319790
S113062023E12083319724E12083319725E120833E
S1130630319726E12083319727E12083319728E100
S11306402083319729E12083319720E22083319759
S113065021E22083319722E22083319723E2208311
S1130660319724E22083319725E22083319726E2D3
S11306702083319727E22083319728E22083319722
S113068029E22083319720E32083319721E32083DB
S1130690319722E32083319723E32083319724E3A6
S11306A02083319725E32083089590939B098093B9
S11306B09A0950939909409398096115710529F095
S11306C07093F5026093F40206C081E090E0909389
S11306D0F5028093F4022115310529F03093F302D9
S11306E02093F20206C081E090E09093F30280939D
S11306F0F2024091F4025091F5022091F2023091FD
S1130700F302429FC001439F900D529F900D11240C
S1130710A0E0B0E08093EE029093EF02A093F00289
S1130720B093F10280E00895DF92EF92FF920F936D
S11307301F93CF93DF93D82EE92EF62E072F0E9416
S1130740C802182FCCE9D9E080EA99E09B838A8318
S1130750DF83CE8380E00E94D002D0924506E092EF
S1130760440681E00E94D002F09295090093940916
S1130770D0939709C0939609812F0E94CC0280E000
S1130780DF91CF911F910F91FF90EF90DF9008952B
S11307906091EA027091EB028091EC029091ED027B
S11307A02091EE023091EF024091F0025091F1025B
S11307B00E94E1046093EA027093EB028093EC02DE
S11307C09093ED022091F4023091F50240E050E064
S11307D00E94E104672B682B692B29F4E0919A09A4
S11307E0F0919B0909952091F2023091F30240E0C7
S11307F050E06091EA027091EB028091EC029091DA
S1130800ED020E94E104672B682B692B29F4E09127
S11308109809F091990909958091EA029091EB0267
S1130820A091EC02B091ED020196A11DB11D80933F
S1130830EA029093EB02A093EC02B093ED02E091F4
S11308409609F091970982819381909397098093F7
S113085096090895FC0160830895CF93DF93EC011A
S11308600E94C8029881911105C07894F8949881E7
S11308709923D9F3915098830E94CC02DF91CF91B0
S11308800895CF93DF93EC010E94C80298819F5F83
S113089098830E94CC02DF91CF910895E09196094C
S11308A0F0919709019010800DBE1EBEFF91EF914B
S11308B0DF91CF91BF91AF919F918F917F916F9174
S11308C05F914F913F912F911F910F91FF90EF9066
S11308D0DF90CF90BF90AF909F908F907F906F905C
S11308E05F904F903F902F901F900F900FBE0F90EE
S11308F07894089582E00E94C20282E00E94BE02BF
S11309004BEF63E082E00E9487020E944E04089548
S1130910F8940F920FB60F921F922F923F924F921C
S11309205F926F927F928F929F92AF92BF92CF927B
S1130930DF92EF92FF920F931F932F933F934F9366
S11309405F936F937F938F939F93AF93BF93CF9353
S1130950DF93EF93FF930DB61EB6E0919609F091E5
S11309609709019210820E94C803E0919609F091C0
S11309709709019010800DBE1EBEFF91EF91DF918B
S1130980CF91BF91AF919F918F917F916F915F9123
S11309904F913F912F911F910F91FF90EF90DF9016
S11309A0CF90BF90AF909F908F907F906F905F900B
S11309B04F903F902F901F900F900FBE0F90789400
S11309C01895A1E21A2EAA1BBB1BFD010DC0AA1F7C
S11309D0BB1FEE1FFF1FA217B307E407F50720F0A4
S11309E0A21BB30BE40BF50B661F771F881F991F1F
S11309F01A9469F760957095809590959B01AC0168
S1130A00BD01CF010895689401C0E8948F929F922C
S1130A10CF93DF930E941105DF91CF919F908F9028
S1130A20089588249924F401E401B0E49F93AA274B
S1130A309A158B049C04ED05FE05CF05D007A1078C
S1130A4098F4AD2FDC2FCF2FFE2FE92D982C892E73
S1130A50982F872F762F652F542F432F322F22273D
S1130A60B85031F7BF9127C01B2EBF91BB27220F6F
S1130A70331F441F551F661F771F881F991F881C2B
S1130A80991CEE1FFF1FCC1FDD1FAA1FBB1F8A145A
S1130A909B04EC05FD05CE05DF05A007B10748F072
S1130AA08A189B08EC09FD09CE09DF09A00BB10BDC
S1130AB021601A94E1F62EF49401AF01BE01CD0138
S1130AC0000C08950024A7FD00942A173005400562
S1130AD0500560057005800590050895F894FFCFD2
S1130AE0101001010402000000000000005F00007B
S1130AF00007000700147F147F14242A7F2A12237E
S1130B001308646236495522500005030000001C96
S1130B102241000041221C0014083E081408083E2B
S1130B200808005030000008080808080060600049
S1130B300020100804023E5149453E00427F400017
S1130B4042615149462141454B311814127F102707
S1130B50454545393C4A494930017109050336493F
S1130B60494936064949291E0036360000005636E2
S1130B700000081422410014141414140041221417
S1130B80080201510906324979413E7E1111117E54
S1130B907F494949363E414141227F4141221C7FE0
S1130BA0494949417F090909013E4149497A7F0878
S1130BB008087F00417F41002040413F017F081425
S1130BC022417F404040407F020C027F7F04081096
S1130BD07F3E4141413E7F090909063E4151215E64
S1130BE07F09192946464949493101017F01013FDD
S1130BF04040403F1F2040201F3F4038403F631487
S1130C0008146307087008076151494543007F4190
S1130C10410002040810200041417F000402010247
S1130C2004404040404000010204002054545478E1
S1130C307F484444383844444420384444487F3846
S1130C4054545418087E0901020C5252523E7F0833
S1130C5004047800447D40002040443D007F102877
S1130C60440000417F40007C041804787C0804049C
S1130C707838444444387C14141408081414187C38
S1130C807C080404084854545420043F4440203C45
S1130C904040207C1C2040201C3C4030403C4428E8
S1130CA01028440C5050503C4464544C44000836C2
S1130CB0410000007F0000004136080010080810C1
S1090CC0081F247C241F20
S9030000FC
