S01C000041546D656761333238505F5363686564756C65722E73726563EE
S11300000C9434000C94C9000C9451000C94DA0044
S11300100C9451000C9451000C9451000C94510018
S11300200C9451000C9451000C9451000C94510008
S11300300C9451000C9451000C94FA020C9451004D
S11300400C9451000C9451000C9451000C945100E8
S11300500C9451000C9451000C9451000C945100D8
S11300600C9451000C94510011241FBECFEFD8E022
S1130070DEBFCDBF11E0A0E0B1E0EAEEF6E002C0E1
S113008005900D92A430B107D9F725E0A4E0B1E0C2
S113009001C01D92AB32B207E1F70E949C000C94A0
S11300A073030C940000FFCFFFCFFFCF089589B1F5
S11300B0847080930101429A809101019091000122
S11300C0981731F0811104C0429881E080930601B1
S11300D080910101809300010895CF93DF93CDB700
S11300E0DEB72A970FB6F894DEBF0FBECDBF0E94CD
S11300F04601909106019130E1F49B852091040121
S1130100309105012C38310558F4A9014E5F5F4F39
S113011050930501409304012F5F3F4F298307C08B
S11301209E81290F2E8310920501109204011092D2
S113013006010E944A01DBCF0E94B70024E630E0AA
S113014047E550E06AEF70E086E590E00E94CA015E
S113015025E530E044E550E063E570E08DE690E0AD
S11301600E9409020E94EC0280E090E0089585B7A5
S11301708F7E85BF52985A9A53985B9A54985C9A8A
S1130180259A389A399A3A9A2D98409841984298E3
S113019008951F920F920FB60F9211248F9380919E
S11301A007018F5F809307018F910F900FBE0F900F
S11301B01F9018951F920F920FB60F9211242F9330
S11301C08F939F9393B1927083B1847020910301B4
S11301D0921721F0911102C010920801209102019E
S11301E0821739F0811105C0209108012F5F2093F7
S11301F0080190930301809302019F918F912F91A5
S11302000F900FBE0F901F90189595B5987F95BDD0
S113021094B59C7F94BD95B5977F95BD8330A1F02F
S113022028F4813041F0823051F020C0853081F0D3
S11302308730A9F01BC084B5816084BD17C084B524
S1130240826084BD47BD12C084B5836084BD0EC086
S113025084B5816084BD85B5886085BD47BD84B59E
S1130260836084BD85B5886085BD47BD16BC85B5F2
S11302706770682B65BD0895877080936E0008953C
S113028095B387708095982395BB08958FB7F8949C
S1130290807808959FB7892B8FBF089590E0FC0163
S11302A0EE0FFF1FEE0FFF1FE55EFA4F982F882712
S11302B09C012F503E4F318320838B5E9E4FFC0167
S11302C0E150FF4F21E02083319722E020833197D2
S11302D020E8208331972083319725E020833197CC
S11302E026E02083319727E02083319728E020837C
S11302F0319729E02083319720E12083319721E150
S11303002083319722E12083319723E120833197A1
S113031024E12083319725E12083319726E120834E
S1130320319727E12083319728E12083319729E110
S11303302083319720E22083319721E22083319773
S113034022E22083319723E22083319724E2208321
S1130350319725E22083319726E22083319727E2E3
S11303602083319728E22083319729E22083319733
S113037020E32083319721E32083319722E32083F4
S1130380319723E32083319724E32083319725E3B6
S11303902083089590931A058093190550931805A6
S11303A0409317056115710529F07093140160934A
S11303B0130106C081E090E090931401809313012F
S11303C02115310529F0309312012093110106C043
S11303D081E090E090931201809311014091130108
S11303E0509114012091110130911201429FC001DA
S11303F0439F900D529F900D1124A0E0B0E0809394
S11304000D0190930E01A0930F01B093100180E0B1
S113041008959F92AF92BF92CF92DF92EF92FF9294
S11304200F931F93CF93DF93982EA92EB62EC72E2A
S1130430D42EE52EF22E032F0E944601182FCBE175
S1130440D5E08FE195E09B838A8383E295E09F83E7
S11304508E8387E295E09B878A87DF87CE8780E05B
S11304600E944E0190921402A092130281E00E9415
S11304704E01B0921403C092130382E00E944E0115
S1130480D0921404E092130483E00E944E01F0928F
S1130490140500931305D0931605C0931505812FF9
S11304A00E944A0180E0DF91CF911F910F91FF904C
S11304B0EF90DF90CF90BF90AF909F9008956091A0
S11304C0090170910A0180910B0190910C01209116
S11304D00D0130910E0140910F01509110010E94C5
S11304E051036093090170930A0180930B01909367
S11304F00C01209113013091140140E050E00E945E
S11305005103672B682B692B29F4E0911905F091AD
S11305101A050995209111013091120140E050E033
S11305206091090170910A0180910B0190910C0175
S11305300E945103672B682B692B29F4E09117055E
S1130540F091180509958091090190910A01A091F3
S11305500B01B0910C010196A11DB11D80930901FD
S113056090930A01A0930B01B0930C01E09115053F
S1130570F091160582819381909316058093150559
S11305800895E0911505F0911605019010800DBEB7
S11305901EBE0F901F902F903F904F905F906F90D2
S11305A07F908F909F90AF90BF90CF90DF90EF900F
S11305B0FF900F911F912F913F914F915F916F91F8
S11305C07F918F919F91AF91BF91CF91DF91EF91E7
S11305D0FF91FFBFFF91089582E00E94400182E0F5
S11305E00E943C014BEF63E082E00E9405010E94FF
S11305F0C1020895FF93FFB7FF93EF93DF93CF9367
S1130600BF93AF939F938F937F936F935F934F9316
S11306103F932F931F930F93FF92EF92DF92CF920A
S1130620BF92AF929F928F927F926F925F924F92FE
S11306303F922F921F920F920DB61EB6E0911505B0
S1130640F0911605019210820E945F02E091150557
S1130650F0911605019010800DBE1EBE0F901F90E4
S11306602F903F904F905F906F907F908F909F90CE
S1130670AF90BF90CF90DF90EF90FF900F911F91BC
S11306802F913F914F915F916F917F918F919F91A6
S1130690AF91BF91CF91DF91EF91FF91FFBFFF9198
S11306A01895A1E21A2EAA1BBB1BFD010DC0AA1F9F
S11306B0BB1FEE1FFF1FA217B307E407F50720F0C7
S11306C0A21BB30BE40BF50B661F771F881F991F42
S11306D01A9469F760957095809590959B01AC018B
S10D06E0BD01CF010895F894FFCF87
S10706EA04040402FA
S9030000FC
