S01C000041546D656761333238505F5363686564756C65722E73726563EE
S11300000C9473000C9429040C9490000C949000AC
S11300100C9490000C9490000C9490000C9490001C
S11300200C9490000C943A040C9490000C9490005E
S11300300C9490000C9490000C9490000C949000FC
S11300400C9490000C9490000C9490000C949000EC
S11300500C9490000C9417070C9490000C9490004E
S11300600C9490000C9490000C9490000C949000CC
S11300700C9490000C9490000C9490000C949000BC
S11300800C9490000C9490000C9490000C949000AC
S11300900C9490000C9490000C9490000C9490009C
S11300A00C9490000C9490000C949000AD03930376
S11300B077035F03E103D0036F03E103E103E1038B
S11300C0E103E103E103E103E103E103E103E1030C
S11300D0E103E1030004A504B604CA04DE049E049B
S11300E0AC04C004D40411241FBECFEFDAE0DEBF99
S11300F0CDBF13E0A0E0B1E0EAE0F0E102C005907A
S11301000D92A031B107D9F729E0A0E1B3E001C015
S11301101D92AE3CB207E1F70E94EC010C94030877
S11301200C9400006F927F928F929F92AF92BF9235
S1130130CF92DF92EF92FF920F931F93CF93DF93AF
S1130140CDB7DEB7A2970FB6F894DEBF0FBECDBF12
S113015038018E010F5F1F4FA5E1F8011192AA9596
S1130160E9F71E8A1F8A188E198E1A8E2B8F3C8FE0
S11301704D8F5E8F6F8F78A389A39AA31D8A4E013A
S1130180F5E18F0E911C2B8D3C8D4D8D5E8D6F8D09
S113019078A189A19AA10F2EFAE0AF2EF02DB12CEF
S11301A0C12CD12CE12CF12C00E010E00E94980726
S11301B0822F932FA42FB52F8E8B9F8BA88FB98F4F
S11301C08E899F89A88DB98D805DF40182934F013A
S11301D02B8D3C8D4D8D5E8D6F8D78A189A19AA15B
S11301E00E949A072B8F3C8F4D8F5E8F6F8F78A361
S11301F089A39AA3A0E00E94F70729F69E012B5E2B
S11302003F4F28193909832F880F880B2B8F3C8F78
S11302108D8F8E8F8F8F88A389A38AA38B8D9C8DBE
S11302209D8D9E8D9F8D98A199A19AA18A8F8A8D6B
S1130230882384F09A8D8A8DF301E90FF11DD4018E
S1130240A80FB11D8C9180838A8D81508A8F8A8DED
S1130250882384F78B8D9C8D9D8D9E8D9F8D98A179
S113026099A19AA1A2960FB6F894DEBF0FBECDBF96
S1130270DF91CF911F910F91FF90EF90DF90CF907E
S1130280BF90AF909F908F907F906F90089589B1A9
S11302908170809303018E9A8091030190910201F1
S11302A0981719F0811101C08E98809103018093F1
S11302B00201089589B18071809301018D9A809122
S11302C0010190910001981741F0811106C08D98A9
S11302D0809110038F5F80931003809101018093BC
S11302E000010895CF93DF93CDB7DEB72C970FB6F7
S11302F0F894DEBF0FBECDBF85E0E6E0F1E0DE019D
S1130300119601900D928A95E1F7FE01369685E0EB
S1130310DF011D928A95E9F789E08B8781E08C875C
S113032009E011E00E9457050E945B050B871C87BA
S113033081E193E00E94BC06AE01445F5F4FBE01C1
S1130340655F7F4FCE0101960E94C10281B3805840
S113035081BB81E193E00E94D00680E593EC019794
S1130360F1F780E593EC0197F1F7DCCFCF93DF93BE
S1130370CDB7DEB72A970FB6F894DEBF0FBECDBF58
S11303800E9457050E945B058E010F5F1F4F2AE0F4
S113039030E040E050E060E070E080E090E00E94F7
S11303A0920081E193E00E94BC0688B1805888B92C
S11303B062E089E00E9499028FE40E94700281E168
S11303C093E00E94D00680E593EC0197F1F780E575
S11303D093EC0197F1F7D4CFCF93DF9300D0CDB74F
S11303E0DEB719821A820E9417040E94360260E066
S11303F080E00E94B0020E941603AE014E5F5F4F80
S1130400BE016F5F7F4F80E191E00E94260361E0AF
S113041081E193E00E94B90624E630E04AE551E028
S11304206AEF70E087E491E00E94E40566EB71E016
S113043082E791E00E9423060E94090780E090E091
S11304400F900F90DF91CF910895CF93DF931F9278
S1130450CDB7DEB78983889861E070E0CE0101965C
S11304600E94FE040F90DF91CF9108950F93809A1C
S1130470889804E020E040E060E081E00E946504A8
S11304808FE00E94ED048FEF9FEFA5E0B0E00197AD
S1130490A109B109E1F781E20E94250280EB0E94E3
S11304A0250284E00E94250284E10E94250280E264
S11304B00E9425028CE00E9425020F910895CF939B
S11304C0DF931F92CDB7DEB78983889A61E070E02D
S11304D0CE0101960E94FE040F90DF91CF91089502
S11304E0CF93DF93C0EEC80F0AF180E00E945F0251
S11304F08C2FCC0F990BEC01CC0FDD1FCC0FDD1F23
S1130500C80FD91FC05DDE4F88810E945F028981B8
S11305100E945F028A810E945F028B810E945F02B7
S11305208C810E945F0280E00E945F02DF91CF9184
S11305300895CF93C62F8C3008F080E0C63008F0C1
S1130540C0E0982F990F990F990F981B892F8068F5
S11305500E9425028C2F80640E942502CF91089569
S1130560CF93C62F843508F080E0C63008F0C0E091
S113057080680E9425028C2F80640E942502CF91FE
S11305800895DF92EF92FF920F931F93CF93DF931F
S11305908C01EB017A0188818F70282F30E02C3098
S11305A0310514F0188201C08883F70180818630F8
S11305B008F01082F701608188810E949902F80195
S11305C08081882349F10F5F1F4FD12C0E94700254
S11305D098819F5F292F2F7030E02C30310514F45F
S11305E0988313C01882F70180818F5F282F2770AA
S11305F030E02630310514F4808302C0F701108204
S1130600F701608188810E949902D394F801819155
S11306108F018111DBCF01C0D12C8D2DDF91CF91C2
S11306201F910F91FF90EF90DF900895CF93DF9388
S1130630C8EFD1E080E00E945F022197D9F760E023
S113064080E00E94B002DF91CF910895BF92CF92D3
S1130650DF92EF92FF920F931F93CF93DF93E82ED5
S1130660F92E8B016A01FB0180818F70282F30E005
S11306702C30310514F0108202C0FB018083F60196
S11306808081863008F01082F6016081F801808153
S11306900E949902CE2DDF2DE12CF12C0F2EFBE0D0
S11306A0BF2EF02DB1C0482F50E0FA013797E53145
S11306B0F10508F086C0EA5AFF4F0C949207F60140
S11306C080818F5F863010F4808302C0F60110822F
S11306D0F6016081F80180810E94990299C0F801B5
S11306E01082F601608180E00E94990291C0F801B5
S11306F02081822F8F7090E009971CF42D5F208356
S11307000BC0F8011082F60180818F5F863010F4EF
S1130710808302C0F6011082F6016081F8018081B5
S11307200E94990275C0F8018081811105C0F6010B
S11307308081811105C00AC08150F801808306C000
S1130740F801B082F601808181508083F6016081D6
S1130750F80180810E9499025BC0F80180818111B7
S113076005C0F6018081811105C00AC08150F801DD
S1130770808306C0F801B082F601808181508083B5
S1130780F6016081F80180810E94990280E20E9452
S11307907002F6016081F80180810E94990238C0DC
S11307A0F6011082F80110820E94160388EB9BE088
S11307B00197F1F7F6016081F80180810E949902A6
S11307C027C00E947002F80180818F5F282F2F704C
S11307D030E02C30310514F480831AC0F801108203
S11307E0F60180818F5F863010F4808302C0F601A9
S11307F01082F6016081F80180810E94990208C08C
S1130800FFEFEF1AFF0A08C0899181114CCF04C091
S11308108FEFE81AF80AF8CFC701DF91CF911F9143
S11308200F91FF90EF90DF90CF90BF90089585B720
S11308308F7E85BF54985C9A5098589A5198599ACB
S11308403F9A879A869A859A47988F988E988D981A
S113085008951F920F920FB60F9211248F938091D7
S113086012038F5F809312038F910F900FBE0F902E
S11308701F9018951F920F920FB60F9211242F9369
S11308808F939F9393B1927083B1847020910501EB
S1130890921721F0911102C01092130320910401C8
S11308A0821739F0811105C0209113032F5F209323
S11308B0130390930501809304019F918F912F91CD
S11308C00F900FBE0F901F9018950F931F939CB518
S11308D09F7B9CBD811104C08CB58F7E8CBD03C0F1
S11308E08CB580618CBD611104C08CB58F7D8CBDCD
S11308F003C08CB580628CBD411104C08CB5877F68
S11309008CBD03C08CB588608CBD211104C08CB52E
S11309108B7F8CBD03C08CB584608CBD8CB58C7F03
S11309208CBD8DB58E7F8DBD10E00830110508F0AB
S11309304EC0F801E559FF4F0C9492078CB58C7F9B
S11309408CBD8DB581608DBD42C08CB58C7F8CBD56
S11309508DB58E7F8DBD3BC08CB58D7F8CBD8CB528
S113096081608CBD8DB581608DBD31C08CB58D7FAE
S11309708CBD8CB581608CBD8DB58E7F8DBD27C03F
S11309808CB58E7F8CBD8CB582608CBD8DB581603D
S11309908DBD1DC08CB58E7F8CBD8CB582608CBD29
S11309A08DB58E7F8DBD13C08CB581608CBD8CB52B
S11309B082608CBD8DB581608DBD09C08CB58160B0
S11309C08CBD8CB582608CBD8DB58E7F8DBD8CB594
S11309D080648CBD1F910F91089583FF02C0219AFA
S11309E0299881FF02C023982B9A82FF02C0229A81
S11309F02A9880FF02C0209A289A08950DB407FC13
S1130A002EB528986115710579F0FC01680F791FDE
S1130A109CB590619CBD91919EBD0DB407FEFDCF28
S1130A208EB5E617F707A1F7289A089595B5987F2C
S1130A3095BD94B59C7F94BD95B5977F95BD833046
S1130A40A1F028F4813041F0823051F020C085308B
S1130A5081F08730A9F01BC084B5816084BD17C0C4
S1130A6084B5826084BD47BD12C084B5836084BDF3
S1130A700EC084B5816084BD85B5886085BD47BDE1
S1130A8084B5836084BD85B5886085BD47BD16BCCB
S1130A9085B56770682B65BD0895877080936E0077
S1130AA0089595B387708095982395BB08958FB763
S1130AB0F894807808959FB7892B8FBF0895282FC5
S1130AC030E0F901EE0FFF1FEE0FFF1FEA53F64F60
S1130AD040E553E0249FC001259F900D349F900D65
S1130AE011249C01245B394F31832083805E9C4F09
S1130AF0FC01E15BFC4F21E02083319722E020835D
S1130B00319723E02083319724E02083319725E037
S1130B102083319726E02083319727E02083319783
S1130B2028E02083319729E02083319720E1208336
S1130B30319721E12083319722E12083319723E10A
S1130B402083319724E12083319725E12083319755
S1130B5026E12083319727E12083319728E1208300
S1130B60319729E12083319720E22083319721E2D4
S1130B702083319722E22083319723E22083319727
S1130B8024E22083319725E22083319726E22083D3
S1130B90319727E22083319728E22083319729E295
S1130BA02083319720E32083319721E320833197F9
S1130BB022E32083319723E32083319724E32083A6
S1130BC0319725E3208308959093C5098093C40940
S1130BD05093C3094093C2096115710529F07093BC
S1130BE01F0360931E0306C081E090E090931F03EF
S1130BF080931E032115310529F030931D032093A2
S1130C001C0306C081E090E090931D0380931C03B5
S1130C1040911E0350911F0320911C0330911D032A
S1130C20429FC001439F900D529F900D1124A0E05C
S1130C30B0E08093180390931903A0931A03B09320
S1130C401B0380E00895DF92EF92FF920F931F93AE
S1130C50CF93DF93D82EE92EF62E072F0E94570547
S1130C60182FC6ECD9E08AEC99E09B838A83DF8352
S1130C70CE8380E00E945F05D0926F06E0926E06FC
S1130C8081E00E945F05F092BF090093BE09D093F2
S1130C90C109C093C009812F0E945B0580E0DF91E8
S1130CA0CF911F910F91FF90EF90DF900895609185
S1130CB014037091150380911603909117032091EA
S1130CC018033091190340911A0350911B030E9499
S1130CD07007609314037093150380931603909325
S1130CE0170320911E0330911F0340E050E00E943F
S1130CF07007672B682B692B29F4E091C409F091E4
S1130D00C509099520911C0330911D0340E050E072
S1130D106091140370911503809116039091170349
S1130D200E947007672B682B692B29F4E091C20994
S1130D30F091C30909958091140390911503A09132
S1130D401603B09117030196A11DB11D80931403DE
S1130D5090931503A0931603B0931703E091C00971
S1130D60F091C109828193819093C1098093C00954
S1130D700895FC0160830895CF93DF93EC010E94F2
S1130D8057059881911105C07894F8949881992316
S1130D90D9F3915098830E945B05DF91CF91089518
S1130DA0CF93DF93EC010E94570598819F5F98834E
S1130DB00E945B05DF91CF910895E091C009F09105
S1130DC0C109019010800DBE1EBEFF91EF91DF910D
S1130DD0CF91BF91AF919F918F917F916F915F91CF
S1130DE04F913F912F911F910F91FF90EF90DF90C2
S1130DF0CF90BF90AF909F908F907F906F905F90B7
S1130E004F903F902F901F900F900FBE0F907894AB
S1130E10089582E00E94510582E00E944D054BEF47
S1130E2063E082E00E9416050E94DD060895F894AE
S1130E300F920FB60F921F922F923F924F925F9292
S1130E406F927F928F929F92AF92BF92CF92DF92D6
S1130E50EF92FF920F931F932F933F934F935F93C0
S1130E606F937F938F939F93AF93BF93CF93DF93AE
S1130E70EF93FF930DB61EB6E091C009F091C1093E
S1130E80019210820E945706E091C009F091C109B5
S1130E90019010800DBE1EBEFF91EF91DF91CF91A6
S1130EA0BF91AF919F918F917F916F915F914F917E
S1130EB03F912F911F910F91FF90EF90DF90CF9072
S1130EC0BF90AF909F908F907F906F905F904F9066
S1130ED03F902F901F900F900FBE0F90789418950D
S1130EE0A1E21A2EAA1BBB1BFD010DC0AA1FBB1F2A
S1130EF0EE1FFF1FA217B307E407F50720F0A21B9C
S1130F00B30BE40BF50B661F771F881F991F1A9408
S1130F1069F760957095809590959B01AC01BD0132
S1130F20CF010895EE0FFF1F0590F491E02D099471
S1130F30689401C0E8948F929F92CF93DF930E94AC
S1130F40A607DF91CF919F908F90089588249924CC
S1130F50F401E401B0E49F93AA279A158B049C043E
S1130F60ED05FE05CF05D007A10798F4AD2FDC2FC2
S1130F70CF2FFE2FE92D982C892E982F872F762F8F
S1130F80652F542F432F322F2227B85031F7BF91AA
S1130F9027C01B2EBF91BB27220F331F441F551F91
S1130FA0661F771F881F991F881C991CEE1FFF1F3F
S1130FB0CC1FDD1FAA1FBB1F8A149B04EC05FD0573
S1130FC0CE05DF05A007B10748F08A189B08EC0995
S1130FD0FD09CE09DF09A00BB10B21601A94E1F6DB
S1130FE02EF49401AF01BE01CD01000C089500243C
S1130FF0A7FD00942A1730054005500560057005CB
S10D1000800590050895F894FFCFD1
S113100A101001010402486F6C6100000000000026
S113101A496E446576204D757465780A0D426F747D
S113102A6F6E20313A0A0D426F746F6E20323A00A5
S113103A000000000000005F000000070007001421
S113104A7F147F14242A7F2A1223130864623649E0
S113105A5522500005030000001C224100004122D1
S113106A1C0014083E081408083E08080050300002
S113107A000808080808006060000020100804023C
S113108A3E5149453E00427F400042615149462152
S113109A41454B311814127F1027454545393C4ABE
S11310AA494930017109050336494949360649490E
S11310BA291E003636000000563600000814224164
S11310CA00141414141400412214080201510906CC
S11310DA324979413E7E1111117E7F494949363E92
S11310EA414141227F4141221C7F494949417F09AB
S11310FA0909013E4149497A7F0808087F00417F6E
S113110A41002040413F017F081422417F40404072
S113111A407F020C027F7F0408107F3E4141413E1A
S113112A7F090909063E4151215E7F09192946466C
S113113A4949493101017F01013F4040403F1F2095
S113114A40201F3F4038403F631408146307087067
S113115A08076151494543007F41410002040810D0
S113116A200041417F000402010204404040404003
S113117A000102040020545454787F484444383807
S113118A44444420384444487F3854545418087E0C
S113119A0901020C5252523E7F0804047800447D2D
S11311AA40002040443D007F1028440000417F4015
S11311BA007C041804787C080404783844444438CD
S11311CA7C14141408081414187C7C0804040848B1
S11311DA54545420043F4440203C4040207C1C206A
S11311EA40201C3C4030403C44281028440C5050B9
S11311FA503C4464544C44000836410000007F00CB
S113120A00004136080010080810081F247C241F17
S9030000FC
