S0120000466972737456616C75652E737265630D
S11300000C9434000C9446000C9446000C94460066
S11300100C9446000C9446000C9446000C94460044
S11300200C9446000C9446000C9446000C94460034
S11300300C9446000C9446000C9446000C94460024
S11300400C9446000C9446000C9446000C94460014
S11300500C9446000C9446000C9446000C94460004
S11300600C9446000C94460011241FBECFEFD8E038
S1130070DEBFCDBF21E0A0E0B1E001C01D92A430FD
S1130080B207E1F70E944E000C946A000C94000041
S11300901F920F920FB60F921124FFCF80E001C080
S11300A080E0E82FF0E0EE0FFF1FEE0FFF1FE0509F
S11300B0FE4F20813181A0E0B1E011963C932E9354
S11300C02281338113963C932E9312978F5F8A314A
S10B00D038F7E7CFF894FFCFE5
S1130200940C4800940C4800940C4800940C48004A
S1130210940C4800940C4800940C4800940C48003A
S1130220940C4800940C4800940C4800940C48002A
S1130230940C4800940C4800940C4800940C48001A
S1130240940C4800940C4800940C4800940C48000A
S1130250940C4800940C4800940C4800940C4800FA
S1070260940C4800AE
S9030000FC
